{
  "contractName": "EscrowService",
  "abi": [
    {
      "inputs": [
        {
          "internalType": "address payable",
          "name": "_buyer_address",
          "type": "address"
        },
        {
          "internalType": "address payable",
          "name": "_seller_address",
          "type": "address"
        },
        {
          "internalType": "uint32",
          "name": "_price",
          "type": "uint32"
        }
      ],
      "stateMutability": "nonpayable",
      "type": "constructor"
    },
    {
      "anonymous": false,
      "inputs": [
        {
          "indexed": true,
          "internalType": "bytes32",
          "name": "role",
          "type": "bytes32"
        },
        {
          "indexed": true,
          "internalType": "bytes32",
          "name": "previousAdminRole",
          "type": "bytes32"
        },
        {
          "indexed": true,
          "internalType": "bytes32",
          "name": "newAdminRole",
          "type": "bytes32"
        }
      ],
      "name": "RoleAdminChanged",
      "type": "event"
    },
    {
      "anonymous": false,
      "inputs": [
        {
          "indexed": true,
          "internalType": "bytes32",
          "name": "role",
          "type": "bytes32"
        },
        {
          "indexed": true,
          "internalType": "address",
          "name": "account",
          "type": "address"
        },
        {
          "indexed": true,
          "internalType": "address",
          "name": "sender",
          "type": "address"
        }
      ],
      "name": "RoleGranted",
      "type": "event"
    },
    {
      "anonymous": false,
      "inputs": [
        {
          "indexed": true,
          "internalType": "bytes32",
          "name": "role",
          "type": "bytes32"
        },
        {
          "indexed": true,
          "internalType": "address",
          "name": "account",
          "type": "address"
        },
        {
          "indexed": true,
          "internalType": "address",
          "name": "sender",
          "type": "address"
        }
      ],
      "name": "RoleRevoked",
      "type": "event"
    },
    {
      "inputs": [],
      "name": "AGENT_ROLE",
      "outputs": [
        {
          "internalType": "bytes32",
          "name": "",
          "type": "bytes32"
        }
      ],
      "stateMutability": "view",
      "type": "function"
    },
    {
      "inputs": [],
      "name": "BUYER_ROLE",
      "outputs": [
        {
          "internalType": "bytes32",
          "name": "",
          "type": "bytes32"
        }
      ],
      "stateMutability": "view",
      "type": "function"
    },
    {
      "inputs": [],
      "name": "DEFAULT_ADMIN_ROLE",
      "outputs": [
        {
          "internalType": "bytes32",
          "name": "",
          "type": "bytes32"
        }
      ],
      "stateMutability": "view",
      "type": "function"
    },
    {
      "inputs": [],
      "name": "SELLER_ROLE",
      "outputs": [
        {
          "internalType": "bytes32",
          "name": "",
          "type": "bytes32"
        }
      ],
      "stateMutability": "view",
      "type": "function"
    },
    {
      "inputs": [],
      "name": "fee",
      "outputs": [
        {
          "internalType": "uint256",
          "name": "",
          "type": "uint256"
        }
      ],
      "stateMutability": "view",
      "type": "function"
    },
    {
      "inputs": [
        {
          "internalType": "bytes32",
          "name": "role",
          "type": "bytes32"
        }
      ],
      "name": "getRoleAdmin",
      "outputs": [
        {
          "internalType": "bytes32",
          "name": "",
          "type": "bytes32"
        }
      ],
      "stateMutability": "view",
      "type": "function"
    },
    {
      "inputs": [
        {
          "internalType": "bytes32",
          "name": "role",
          "type": "bytes32"
        },
        {
          "internalType": "address",
          "name": "account",
          "type": "address"
        }
      ],
      "name": "grantRole",
      "outputs": [],
      "stateMutability": "nonpayable",
      "type": "function"
    },
    {
      "inputs": [
        {
          "internalType": "bytes32",
          "name": "role",
          "type": "bytes32"
        },
        {
          "internalType": "address",
          "name": "account",
          "type": "address"
        }
      ],
      "name": "hasRole",
      "outputs": [
        {
          "internalType": "bool",
          "name": "",
          "type": "bool"
        }
      ],
      "stateMutability": "view",
      "type": "function"
    },
    {
      "inputs": [],
      "name": "price",
      "outputs": [
        {
          "internalType": "uint256",
          "name": "",
          "type": "uint256"
        }
      ],
      "stateMutability": "view",
      "type": "function"
    },
    {
      "inputs": [
        {
          "internalType": "bytes32",
          "name": "role",
          "type": "bytes32"
        },
        {
          "internalType": "address",
          "name": "account",
          "type": "address"
        }
      ],
      "name": "renounceRole",
      "outputs": [],
      "stateMutability": "nonpayable",
      "type": "function"
    },
    {
      "inputs": [
        {
          "internalType": "bytes32",
          "name": "role",
          "type": "bytes32"
        },
        {
          "internalType": "address",
          "name": "account",
          "type": "address"
        }
      ],
      "name": "revokeRole",
      "outputs": [],
      "stateMutability": "nonpayable",
      "type": "function"
    },
    {
      "inputs": [],
      "name": "status",
      "outputs": [
        {
          "internalType": "uint32",
          "name": "",
          "type": "uint32"
        }
      ],
      "stateMutability": "view",
      "type": "function"
    },
    {
      "inputs": [
        {
          "internalType": "bytes4",
          "name": "interfaceId",
          "type": "bytes4"
        }
      ],
      "name": "supportsInterface",
      "outputs": [
        {
          "internalType": "bool",
          "name": "",
          "type": "bool"
        }
      ],
      "stateMutability": "view",
      "type": "function"
    },
    {
      "inputs": [],
      "name": "BuyerSendPayment",
      "outputs": [],
      "stateMutability": "payable",
      "type": "function"
    },
    {
      "inputs": [],
      "name": "SellerClaimPayment",
      "outputs": [],
      "stateMutability": "nonpayable",
      "type": "function"
    },
    {
      "inputs": [],
      "name": "BuyerConfirmDeliver",
      "outputs": [],
      "stateMutability": "payable",
      "type": "function"
    },
    {
      "inputs": [],
      "name": "BuyerDenyDeliver",
      "outputs": [],
      "stateMutability": "nonpayable",
      "type": "function"
    },
    {
      "inputs": [],
      "name": "AgentConfirmTransaction",
      "outputs": [],
      "stateMutability": "nonpayable",
      "type": "function"
    },
    {
      "inputs": [],
      "name": "AgentCancelTransaction",
      "outputs": [],
      "stateMutability": "nonpayable",
      "type": "function"
    },
    {
      "inputs": [],
      "name": "VaultBalance",
      "outputs": [
        {
          "internalType": "uint256",
          "name": "",
          "type": "uint256"
        }
      ],
      "stateMutability": "nonpayable",
      "type": "function"
    }
  ],
  "bytecode": "0x60806040523480156200001157600080fd5b50604051620024b6380380620024b6833981810160405281019062000037919062000485565b6000600860006101000a81548163ffffffff021916908363ffffffff16021790555030600160006101000a81548173ffffffffffffffffffffffffffffffffffffffff021916908373ffffffffffffffffffffffffffffffffffffffff16021790555033600260006101000a81548173ffffffffffffffffffffffffffffffffffffffff021916908373ffffffffffffffffffffffffffffffffffffffff16021790555033600360006101000a81548173ffffffffffffffffffffffffffffffffffffffff021916908373ffffffffffffffffffffffffffffffffffffffff16021790555082600460006101000a81548173ffffffffffffffffffffffffffffffffffffffff021916908373ffffffffffffffffffffffffffffffffffffffff16021790555081600560006101000a81548173ffffffffffffffffffffffffffffffffffffffff021916908373ffffffffffffffffffffffffffffffffffffffff160217905550670de0b6b3a76400008163ffffffff16620001ba9190620004db565b67ffffffffffffffff16600681905550670de0b6b3a76400006007819055506200022d7fcab5a0bfe0b79d2c4b1c2e02599fa044d115b7511f9659307cb4276950967709600360009054906101000a900473ffffffffffffffffffffffffffffffffffffffff16620002de60201b60201c565b620002817ff8cd32ed93fc2f9fc78152a14807c9609af3d99c5fe4dc6b106a801aaddfe90e600460009054906101000a900473ffffffffffffffffffffffffffffffffffffffff16620002de60201b60201c565b620002d57f43f25613eb2f15fb17222a5d424ca2655743e71265d98e4b93c05e5fb589ecde600560009054906101000a900473ffffffffffffffffffffffffffffffffffffffff16620002de60201b60201c565b505050620005df565b620002f08282620002f460201b60201c565b5050565b620003068282620003e560201b60201c565b620003e157600160008084815260200190815260200160002060000160008373ffffffffffffffffffffffffffffffffffffffff1673ffffffffffffffffffffffffffffffffffffffff16815260200190815260200160002060006101000a81548160ff021916908315150217905550620003866200044f60201b60201c565b73ffffffffffffffffffffffffffffffffffffffff168173ffffffffffffffffffffffffffffffffffffffff16837f2f8788117e7eff1d82e926ec794901d17c78024a50270940304540a733656f0d60405160405180910390a45b5050565b600080600084815260200190815260200160002060000160008373ffffffffffffffffffffffffffffffffffffffff1673ffffffffffffffffffffffffffffffffffffffff16815260200190815260200160002060009054906101000a900460ff16905092915050565b600033905090565b6000815190506200046881620005ab565b92915050565b6000815190506200047f81620005c5565b92915050565b6000806000606084860312156200049b57600080fd5b6000620004ab8682870162000457565b9350506020620004be8682870162000457565b9250506040620004d1868287016200046e565b9150509250925092565b6000620004e88262000568565b9150620004f58362000568565b92508167ffffffffffffffff04831182151516156200051957620005186200057c565b5b828202905092915050565b6000620005318262000538565b9050919050565b600073ffffffffffffffffffffffffffffffffffffffff82169050919050565b600063ffffffff82169050919050565b600067ffffffffffffffff82169050919050565b7f4e487b7100000000000000000000000000000000000000000000000000000000600052601160045260246000fd5b620005b68162000524565b8114620005c257600080fd5b50565b620005d08162000558565b8114620005dc57600080fd5b50565b611ec780620005ef6000396000f3fe60806040526004361061011f5760003560e01c80637a01a1da116100a0578063d547741f11610064578063d547741f14610371578063dbe4613d1461039a578063ddca3f43146103c5578063e5c474c9146103f0578063efe34564146104075761011f565b80637a01a1da1461029c57806391d14854146102c7578063a035b1fe14610304578063a217fddf1461032f578063c8c465811461035a5761011f565b80632ba92052116100e75780632ba92052146101fe5780632f2ff15d1461020857806336568abe14610231578063511a80d51461025a578063716434f1146102855761011f565b806301ffc9a7146101245780630427d7ab14610161578063200d2ed21461016b57806322459e1814610196578063248a9ca3146101c1575b600080fd5b34801561013057600080fd5b5061014b6004803603810190610146919061156f565b61041e565b6040516101589190611a68565b60405180910390f35b610169610498565b005b34801561017757600080fd5b506101806105ec565b60405161018d9190611bfb565b60405180910390f35b3480156101a257600080fd5b506101ab610602565b6040516101b89190611a83565b60405180910390f35b3480156101cd57600080fd5b506101e860048036038101906101e3919061150a565b610626565b6040516101f59190611a83565b60405180910390f35b610206610645565b005b34801561021457600080fd5b5061022f600480360381019061022a9190611533565b610869565b005b34801561023d57600080fd5b5061025860048036038101906102539190611533565b610892565b005b34801561026657600080fd5b5061026f610915565b60405161027c9190611be0565b60405180910390f35b34801561029157600080fd5b5061029a610a07565b005b3480156102a857600080fd5b506102b1610b5b565b6040516102be9190611a83565b60405180910390f35b3480156102d357600080fd5b506102ee60048036038101906102e99190611533565b610b7f565b6040516102fb9190611a68565b60405180910390f35b34801561031057600080fd5b50610319610be9565b6040516103269190611be0565b60405180910390f35b34801561033b57600080fd5b50610344610bef565b6040516103519190611a83565b60405180910390f35b34801561036657600080fd5b5061036f610bf6565b005b34801561037d57600080fd5b5061039860048036038101906103939190611533565b610ca8565b005b3480156103a657600080fd5b506103af610cd1565b6040516103bc9190611a83565b60405180910390f35b3480156103d157600080fd5b506103da610cf5565b6040516103e79190611be0565b60405180910390f35b3480156103fc57600080fd5b50610405610cfb565b005b34801561041357600080fd5b5061041c610dad565b005b60007f7965db0b000000000000000000000000000000000000000000000000000000007bffffffffffffffffffffffffffffffffffffffffffffffffffffffff1916827bffffffffffffffffffffffffffffffffffffffffffffffffffffffff19161480610491575061049082610f01565b5b9050919050565b7ff8cd32ed93fc2f9fc78152a14807c9609af3d99c5fe4dc6b106a801aaddfe90e6104ca816104c5610f6b565b610f73565b6002600860009054906101000a900463ffffffff1663ffffffff1614610525576040517f08c379a000000000000000000000000000000000000000000000000000000000815260040161051c90611b00565b60405180910390fd5b6005600860006101000a81548163ffffffff021916908363ffffffff160217905550600560009054906101000a900473ffffffffffffffffffffffffffffffffffffffff1673ffffffffffffffffffffffffffffffffffffffff166108fc600160009054906101000a900473ffffffffffffffffffffffffffffffffffffffff1673ffffffffffffffffffffffffffffffffffffffff16319081150290604051600060405180830381858888f193505050501580156105e8573d6000803e3d6000fd5b5050565b600860009054906101000a900463ffffffff1681565b7fcab5a0bfe0b79d2c4b1c2e02599fa044d115b7511f9659307cb427695096770981565b6000806000838152602001908152602001600020600101549050919050565b7ff8cd32ed93fc2f9fc78152a14807c9609af3d99c5fe4dc6b106a801aaddfe90e61067781610672610f6b565b610f73565b60075434116106bb576040517f08c379a00000000000000000000000000000000000000000000000000000000081526004016106b290611b60565b60405180910390fd5b600654341015610700576040517f08c379a00000000000000000000000000000000000000000000000000000000081526004016106f790611b80565b60405180910390fd5b6000600860009054906101000a900463ffffffff1663ffffffff161461075b576040517f08c379a000000000000000000000000000000000000000000000000000000000815260040161075290611b20565b60405180910390fd5b6001600860006101000a81548163ffffffff021916908363ffffffff160217905550600360009054906101000a900473ffffffffffffffffffffffffffffffffffffffff1673ffffffffffffffffffffffffffffffffffffffff166108fc6007549081150290604051600060405180830381858888f193505050501580156107e7573d6000803e3d6000fd5b5060006007546006546107fa9190611ced565b9050600160009054906101000a900473ffffffffffffffffffffffffffffffffffffffff1673ffffffffffffffffffffffffffffffffffffffff166108fc829081150290604051600060405180830381858888f19350505050158015610864573d6000803e3d6000fd5b505050565b61087282610626565b6108838161087e610f6b565b610f73565b61088d8383611010565b505050565b61089a610f6b565b73ffffffffffffffffffffffffffffffffffffffff168173ffffffffffffffffffffffffffffffffffffffff1614610907576040517f08c379a00000000000000000000000000000000000000000000000000000000081526004016108fe90611bc0565b60405180910390fd5b61091182826110f0565b5050565b60007fcab5a0bfe0b79d2c4b1c2e02599fa044d115b7511f9659307cb427695096770961094981610944610f6b565b610f73565b6001600860009054906101000a900463ffffffff1663ffffffff1610156109a5576040517f08c379a000000000000000000000000000000000000000000000000000000000815260040161099c90611b40565b60405180910390fd5b6005600860006101000a81548163ffffffff021916908363ffffffff160217905550600160009054906101000a900473ffffffffffffffffffffffffffffffffffffffff1673ffffffffffffffffffffffffffffffffffffffff163191505090565b7fcab5a0bfe0b79d2c4b1c2e02599fa044d115b7511f9659307cb4276950967709610a3981610a34610f6b565b610f73565b6003600860009054906101000a900463ffffffff1663ffffffff1614610a94576040517f08c379a0000000000000000000000000000000000000000000000000000000008152600401610a8b90611ae0565b60405180910390fd5b6005600860006101000a81548163ffffffff021916908363ffffffff160217905550600360009054906101000a900473ffffffffffffffffffffffffffffffffffffffff1673ffffffffffffffffffffffffffffffffffffffff166108fc600160009054906101000a900473ffffffffffffffffffffffffffffffffffffffff1673ffffffffffffffffffffffffffffffffffffffff16319081150290604051600060405180830381858888f19350505050158015610b57573d6000803e3d6000fd5b5050565b7ff8cd32ed93fc2f9fc78152a14807c9609af3d99c5fe4dc6b106a801aaddfe90e81565b600080600084815260200190815260200160002060000160008373ffffffffffffffffffffffffffffffffffffffff1673ffffffffffffffffffffffffffffffffffffffff16815260200190815260200160002060009054906101000a900460ff16905092915050565b60065481565b6000801b81565b7ff8cd32ed93fc2f9fc78152a14807c9609af3d99c5fe4dc6b106a801aaddfe90e610c2881610c23610f6b565b610f73565b6002600860009054906101000a900463ffffffff1663ffffffff1614610c83576040517f08c379a0000000000000000000000000000000000000000000000000000000008152600401610c7a90611b00565b60405180910390fd5b6004600860006101000a81548163ffffffff021916908363ffffffff16021790555050565b610cb182610626565b610cc281610cbd610f6b565b610f73565b610ccc83836110f0565b505050565b7f43f25613eb2f15fb17222a5d424ca2655743e71265d98e4b93c05e5fb589ecde81565b60075481565b7f43f25613eb2f15fb17222a5d424ca2655743e71265d98e4b93c05e5fb589ecde610d2d81610d28610f6b565b610f73565b6001600860009054906101000a900463ffffffff1663ffffffff1614610d88576040517f08c379a0000000000000000000000000000000000000000000000000000000008152600401610d7f90611ba0565b60405180910390fd5b6002600860006101000a81548163ffffffff021916908363ffffffff16021790555050565b7fcab5a0bfe0b79d2c4b1c2e02599fa044d115b7511f9659307cb4276950967709610ddf81610dda610f6b565b610f73565b6003600860009054906101000a900463ffffffff1663ffffffff1614610e3a576040517f08c379a0000000000000000000000000000000000000000000000000000000008152600401610e3190611ae0565b60405180910390fd5b6005600860006101000a81548163ffffffff021916908363ffffffff160217905550600460009054906101000a900473ffffffffffffffffffffffffffffffffffffffff1673ffffffffffffffffffffffffffffffffffffffff166108fc600160009054906101000a900473ffffffffffffffffffffffffffffffffffffffff1673ffffffffffffffffffffffffffffffffffffffff16319081150290604051600060405180830381858888f19350505050158015610efd573d6000803e3d6000fd5b5050565b60007f01ffc9a7000000000000000000000000000000000000000000000000000000007bffffffffffffffffffffffffffffffffffffffffffffffffffffffff1916827bffffffffffffffffffffffffffffffffffffffffffffffffffffffff1916149050919050565b600033905090565b610f7d8282610b7f565b61100c57610fa28173ffffffffffffffffffffffffffffffffffffffff1660146111d1565b610fb08360001c60206111d1565b604051602001610fc1929190611a2e565b6040516020818303038152906040526040517f08c379a00000000000000000000000000000000000000000000000000000000081526004016110039190611a9e565b60405180910390fd5b5050565b61101a8282610b7f565b6110ec57600160008084815260200190815260200160002060000160008373ffffffffffffffffffffffffffffffffffffffff1673ffffffffffffffffffffffffffffffffffffffff16815260200190815260200160002060006101000a81548160ff021916908315150217905550611091610f6b565b73ffffffffffffffffffffffffffffffffffffffff168173ffffffffffffffffffffffffffffffffffffffff16837f2f8788117e7eff1d82e926ec794901d17c78024a50270940304540a733656f0d60405160405180910390a45b5050565b6110fa8282610b7f565b156111cd57600080600084815260200190815260200160002060000160008373ffffffffffffffffffffffffffffffffffffffff1673ffffffffffffffffffffffffffffffffffffffff16815260200190815260200160002060006101000a81548160ff021916908315150217905550611172610f6b565b73ffffffffffffffffffffffffffffffffffffffff168173ffffffffffffffffffffffffffffffffffffffff16837ff6391f5c32d9c69d2a47ea670b442974b53935d1edc7fd64eb21e047a839171b60405160405180910390a45b5050565b6060600060028360026111e49190611c93565b6111ee9190611c3d565b67ffffffffffffffff81111561122d577f4e487b7100000000000000000000000000000000000000000000000000000000600052604160045260246000fd5b6040519080825280601f01601f19166020018201604052801561125f5781602001600182028036833780820191505090505b5090507f3000000000000000000000000000000000000000000000000000000000000000816000815181106112bd577f4e487b7100000000000000000000000000000000000000000000000000000000600052603260045260246000fd5b60200101907effffffffffffffffffffffffffffffffffffffffffffffffffffffffffffff1916908160001a9053507f780000000000000000000000000000000000000000000000000000000000000081600181518110611347577f4e487b7100000000000000000000000000000000000000000000000000000000600052603260045260246000fd5b60200101907effffffffffffffffffffffffffffffffffffffffffffffffffffffffffffff1916908160001a905350600060018460026113879190611c93565b6113919190611c3d565b90505b600181111561147d577f3031323334353637383961626364656600000000000000000000000000000000600f8616601081106113f9577f4e487b7100000000000000000000000000000000000000000000000000000000600052603260045260246000fd5b1a60f81b828281518110611436577f4e487b7100000000000000000000000000000000000000000000000000000000600052603260045260246000fd5b60200101907effffffffffffffffffffffffffffffffffffffffffffffffffffffffffffff1916908160001a905350600485901c94508061147690611de2565b9050611394565b50600084146114c1576040517f08c379a00000000000000000000000000000000000000000000000000000000081526004016114b890611ac0565b60405180910390fd5b8091505092915050565b6000813590506114da81611e4c565b92915050565b6000813590506114ef81611e63565b92915050565b60008135905061150481611e7a565b92915050565b60006020828403121561151c57600080fd5b600061152a848285016114e0565b91505092915050565b6000806040838503121561154657600080fd5b6000611554858286016114e0565b9250506020611565858286016114cb565b9150509250929050565b60006020828403121561158157600080fd5b600061158f848285016114f5565b91505092915050565b6115a181611d33565b82525050565b6115b081611d3f565b82525050565b60006115c182611c16565b6115cb8185611c21565b93506115db818560208601611daf565b6115e481611e3b565b840191505092915050565b60006115fa82611c16565b6116048185611c32565b9350611614818560208601611daf565b80840191505092915050565b600061162d602083611c21565b91507f537472696e67733a20686578206c656e67746820696e73756666696369656e746000830152602082019050919050565b600061166d603383611c21565b91507f546869732073686f756c642062652074686520666f757274682073746167652060008301527f6f6620746865206e65676f63696174696f6e21000000000000000000000000006020830152604082019050919050565b60006116d3603283611c21565b91507f546869732073686f756c6420626520746865207468697264207374616765206f60008301527f6620746865206e65676f63696174696f6e2100000000000000000000000000006020830152604082019050919050565b6000611739603283611c21565b91507f546869732073686f756c6420626520746865206669727374207374616765206f60008301527f6620746865206e65676f63696174696f6e2100000000000000000000000000006020830152604082019050919050565b600061179f601c83611c21565b91507f5472616e73616374696f6e206e6f7420737461727465642079657421000000006000830152602082019050919050565b60006117df602c83611c21565b91507f457363726f77204167656e7420746178206f662031204574686572206d75737460008301527f20626520636f76657265642100000000000000000000000000000000000000006020830152604082019050919050565b6000611845604983611c21565b91507f42757965722073686f756c6420706179206174206c6561737420746865206d6960008301527f6e696d616c20707269636520666f72207468652070726f6475637473206f722060208301527f73657276696365732e00000000000000000000000000000000000000000000006040830152606082019050919050565b60006118d1603383611c21565b91507f546869732073686f756c6420626520746865207365636f6e642073746167652060008301527f6f6620746865206e65676f63696174696f6e21000000000000000000000000006020830152604082019050919050565b6000611937601783611c32565b91507f416363657373436f6e74726f6c3a206163636f756e74200000000000000000006000830152601782019050919050565b6000611977601183611c32565b91507f206973206d697373696e6720726f6c65200000000000000000000000000000006000830152601182019050919050565b60006119b7602f83611c21565b91507f416363657373436f6e74726f6c3a2063616e206f6e6c792072656e6f756e636560008301527f20726f6c657320666f722073656c6600000000000000000000000000000000006020830152604082019050919050565b611a1981611d95565b82525050565b611a2881611d9f565b82525050565b6000611a398261192a565b9150611a4582856115ef565b9150611a508261196a565b9150611a5c82846115ef565b91508190509392505050565b6000602082019050611a7d6000830184611598565b92915050565b6000602082019050611a9860008301846115a7565b92915050565b60006020820190508181036000830152611ab881846115b6565b905092915050565b60006020820190508181036000830152611ad981611620565b9050919050565b60006020820190508181036000830152611af981611660565b9050919050565b60006020820190508181036000830152611b19816116c6565b9050919050565b60006020820190508181036000830152611b398161172c565b9050919050565b60006020820190508181036000830152611b5981611792565b9050919050565b60006020820190508181036000830152611b79816117d2565b9050919050565b60006020820190508181036000830152611b9981611838565b9050919050565b60006020820190508181036000830152611bb9816118c4565b9050919050565b60006020820190508181036000830152611bd9816119aa565b9050919050565b6000602082019050611bf56000830184611a10565b92915050565b6000602082019050611c106000830184611a1f565b92915050565b600081519050919050565b600082825260208201905092915050565b600081905092915050565b6000611c4882611d95565b9150611c5383611d95565b9250827fffffffffffffffffffffffffffffffffffffffffffffffffffffffffffffffff03821115611c8857611c87611e0c565b5b828201905092915050565b6000611c9e82611d95565b9150611ca983611d95565b9250817fffffffffffffffffffffffffffffffffffffffffffffffffffffffffffffffff0483118215151615611ce257611ce1611e0c565b5b828202905092915050565b6000611cf882611d95565b9150611d0383611d95565b925082821015611d1657611d15611e0c565b5b828203905092915050565b6000611d2c82611d75565b9050919050565b60008115159050919050565b6000819050919050565b60007fffffffff0000000000000000000000000000000000000000000000000000000082169050919050565b600073ffffffffffffffffffffffffffffffffffffffff82169050919050565b6000819050919050565b600063ffffffff82169050919050565b60005b83811015611dcd578082015181840152602081019050611db2565b83811115611ddc576000848401525b50505050565b6000611ded82611d95565b91506000821415611e0157611e00611e0c565b5b600182039050919050565b7f4e487b7100000000000000000000000000000000000000000000000000000000600052601160045260246000fd5b6000601f19601f8301169050919050565b611e5581611d21565b8114611e6057600080fd5b50565b611e6c81611d3f565b8114611e7757600080fd5b50565b611e8381611d49565b8114611e8e57600080fd5b5056fea2646970667358221220afe319daccdd6040355f41ca55a2a73d93061ef9e18d263529a130d5554d284f64736f6c63430008000033",
  "immutableReferences": {},
  "source": "//SPDX-License-Identifier: MIT\npragma solidity ^0.8.0;\n\n/// @dev Implements a single role access control contract.\nimport \"./AccessControl.sol\";\n//import \"@openzeppelin/contracts/access/AccessControl.sol\";\n\n\n/// @title EscrowService Contract\n/// @author Alexandre Rapchan B. Barros (from BlockExplorers' Team )\n/// @notice Building a Escrow Service using OpenZeppelin Escrow and RBAC\n/// @dev Not using SafeMath cause we are already using pragma 0.8.0\n\ncontract EscrowService is AccessControl { //Ownable, \n\n    // @dev Roles are referred to by their bytes32 identifier. \n    // @dev These should be exposed in the external API and be unique. \n    bytes32 public constant AGENT_ROLE = keccak256(\"AGENT_ROLE\");\n    bytes32 public constant BUYER_ROLE = keccak256(\"BUYER_ROLE\");\n    bytes32 public constant SELLER_ROLE = keccak256(\"SELLER_ROLE\");\n\n\n    /// @dev Defining initial varible to work with the escrow contract\n    address vault;\n    address root;\n    address payable agent;\n    address payable buyer;\n    address payable seller;\n    \n    /// @dev Defining varible that will hold the values transactionated in the contract\n    uint256 public price;\n    uint256 public fee;\n\n    /// @dev State varible to track escrow stage\n    uint32 public status;\n    \n    /// @dev Create the community role, with `root` as a member.\n    constructor(address payable _buyer_address, address payable _seller_address, uint32 _price) {\n        \n        status = 0 ;\n        vault = address(this);\n        root = msg.sender;\n        agent = payable(msg.sender);\n        buyer = _buyer_address;\n        seller= _seller_address;\n        price = _price*10**18;\n        fee = 1*10**18;\n        \n        _setupRole(AGENT_ROLE, agent);\n        _setupRole(BUYER_ROLE, buyer);\n        _setupRole(SELLER_ROLE, seller);\n    }\n            \n    /// @notice This should be the first stage of the negociation! //address payable _seller, uint _price\n    function BuyerSendPayment() external payable onlyRole(BUYER_ROLE) { \n        require (msg.value > fee, \"Escrow Agent tax of 1 Ether must be covered!\");\n        //require (_seller == seller, \"Buyer must confirm the seller address!\");\n        require (msg.value >= price, \"Buyer should pay at least the minimal price for the products or services.\");\n        require (status == 0 , \"This should be the first stage of the negociation!\");\n        status = 1 ; \n        payable(agent).transfer(fee);\n        uint256 new_price = price - fee;\n        payable(vault).transfer(new_price); \n\n    }\n\n    /// @notice This should be the second stage of the negociation!\"\n    function SellerClaimPayment () public onlyRole(SELLER_ROLE) {\n        require (status == 1 , \"This should be the second stage of the negociation!\");\n        status = 2 ;\n    }\n\n    /// @notice Only the buyer can confirm the deliver.\n    function BuyerConfirmDeliver () payable public onlyRole(BUYER_ROLE) {\n        require (status == 2 , \"This should be the third stage of the negociation!\");\n        status = 5 ;\n        seller.transfer(vault.balance);\n    }\n\n    /// @notice Only the buyer can deny the deliver.\n    function BuyerDenyDeliver () public onlyRole(BUYER_ROLE) {\n        require (status == 2 , \"This should be the third stage of the negociation!\");\n        status = 4 ;\n    }\n  \n    /// @notice If conditions met: escrow agent releases to seller.\n    function AgentConfirmTransaction () public onlyRole(AGENT_ROLE) {\n        require (status == 3 , \"This should be the fourth stage of the negociation!\");\n        status = 5 ;\n        agent.transfer(vault.balance);\n    }\n\n    /// @notice If conditions does not met: escrow agent revert to buyer.\n    function AgentCancelTransaction () onlyRole(AGENT_ROLE) public {\n        require (status == 3 , \"This should be the fourth stage of the negociation!\");\n        status = 5 ;\n        buyer.transfer(vault.balance); \n    }\n\n    /// @notice Only the agent can check vault balance.\n    function VaultBalance () public onlyRole(AGENT_ROLE) returns(uint256){\n        require (status >=1 , \"Transaction not started yet!\");\n        status = 5 ;\n        return vault.balance;\n    }\n\n}",
  "sourcePath": "/Users/alexandrebarros/Documents/Code/GBC/Concluded/2Semester/Design-Patterns/2-Labs/escrow-service/dapp/contracts/Escrow.sol",
  "compiler": {
    "name": "solc",
    "version": "0.8.0+commit.c7dfd78e.Emscripten.clang"
  },
  "schemaVersion": "3.4.1",
  "updatedAt": "2021-06-19T22:51:38.991Z",
  "devdoc": {
    "author": "Alexandre Rapchan B. Barros (from BlockExplorers' Team )",
    "details": "Not using SafeMath cause we are already using pragma 0.8.0",
    "kind": "dev",
    "methods": {
      "constructor": {
        "details": "Create the community role, with `root` as a member."
      },
      "getRoleAdmin(bytes32)": {
        "details": "Returns the admin role that controls `role`. See {grantRole} and {revokeRole}. To change a role's admin, use {_setRoleAdmin}."
      },
      "grantRole(bytes32,address)": {
        "details": "Grants `role` to `account`. If `account` had not been already granted `role`, emits a {RoleGranted} event. Requirements: - the caller must have ``role``'s admin role."
      },
      "hasRole(bytes32,address)": {
        "details": "Returns `true` if `account` has been granted `role`."
      },
      "renounceRole(bytes32,address)": {
        "details": "Revokes `role` from the calling account. Roles are often managed via {grantRole} and {revokeRole}: this function's purpose is to provide a mechanism for accounts to lose their privileges if they are compromised (such as when a trusted device is misplaced). If the calling account had been granted `role`, emits a {RoleRevoked} event. Requirements: - the caller must be `account`."
      },
      "revokeRole(bytes32,address)": {
        "details": "Revokes `role` from `account`. If `account` had been granted `role`, emits a {RoleRevoked} event. Requirements: - the caller must have ``role``'s admin role."
      },
      "supportsInterface(bytes4)": {
        "details": "See {IERC165-supportsInterface}."
      }
    },
    "stateVariables": {
      "price": {
        "details": "Defining varible that will hold the values transactionated in the contract"
      },
      "status": {
        "details": "State varible to track escrow stage"
      },
      "vault": {
        "details": "Defining initial varible to work with the escrow contract"
      }
    },
    "title": "EscrowService Contract",
    "version": 1
  },
  "userdoc": {
    "kind": "user",
    "methods": {
      "AgentCancelTransaction()": {
        "notice": "If conditions does not met: escrow agent revert to buyer."
      },
      "AgentConfirmTransaction()": {
        "notice": "If conditions met: escrow agent releases to seller."
      },
      "BuyerConfirmDeliver()": {
        "notice": "Only the buyer can confirm the deliver."
      },
      "BuyerDenyDeliver()": {
        "notice": "Only the buyer can deny the deliver."
      },
      "BuyerSendPayment()": {
        "notice": "This should be the first stage of the negociation! //address payable _seller, uint _price"
      },
      "SellerClaimPayment()": {
        "notice": "This should be the second stage of the negociation!\""
      },
      "VaultBalance()": {
        "notice": "Only the agent can check vault balance."
      }
    },
    "notice": "Building a Escrow Service using OpenZeppelin Escrow and RBAC",
    "version": 1
  }
}