{
  "contractName": "PaymentGateway",
  "abi": [
    {
      "inputs": [
        {
          "internalType": "address payable",
          "name": "_wallet",
          "type": "address"
        }
      ],
      "stateMutability": "nonpayable",
      "type": "constructor"
    },
    {
      "anonymous": false,
      "inputs": [
        {
          "indexed": true,
          "internalType": "address",
          "name": "previousOwner",
          "type": "address"
        },
        {
          "indexed": true,
          "internalType": "address",
          "name": "newOwner",
          "type": "address"
        }
      ],
      "name": "OwnershipTransferred",
      "type": "event"
    },
    {
      "anonymous": false,
      "inputs": [
        {
          "indexed": true,
          "internalType": "bytes32",
          "name": "role",
          "type": "bytes32"
        },
        {
          "indexed": true,
          "internalType": "bytes32",
          "name": "previousAdminRole",
          "type": "bytes32"
        },
        {
          "indexed": true,
          "internalType": "bytes32",
          "name": "newAdminRole",
          "type": "bytes32"
        }
      ],
      "name": "RoleAdminChanged",
      "type": "event"
    },
    {
      "anonymous": false,
      "inputs": [
        {
          "indexed": true,
          "internalType": "bytes32",
          "name": "role",
          "type": "bytes32"
        },
        {
          "indexed": true,
          "internalType": "address",
          "name": "account",
          "type": "address"
        },
        {
          "indexed": true,
          "internalType": "address",
          "name": "sender",
          "type": "address"
        }
      ],
      "name": "RoleGranted",
      "type": "event"
    },
    {
      "anonymous": false,
      "inputs": [
        {
          "indexed": true,
          "internalType": "bytes32",
          "name": "role",
          "type": "bytes32"
        },
        {
          "indexed": true,
          "internalType": "address",
          "name": "account",
          "type": "address"
        },
        {
          "indexed": true,
          "internalType": "address",
          "name": "sender",
          "type": "address"
        }
      ],
      "name": "RoleRevoked",
      "type": "event"
    },
    {
      "inputs": [],
      "name": "DEFAULT_ADMIN_ROLE",
      "outputs": [
        {
          "internalType": "bytes32",
          "name": "",
          "type": "bytes32"
        }
      ],
      "stateMutability": "view",
      "type": "function"
    },
    {
      "inputs": [],
      "name": "ESCROW_ROLE",
      "outputs": [
        {
          "internalType": "bytes32",
          "name": "",
          "type": "bytes32"
        }
      ],
      "stateMutability": "view",
      "type": "function"
    },
    {
      "inputs": [
        {
          "internalType": "bytes32",
          "name": "role",
          "type": "bytes32"
        }
      ],
      "name": "getRoleAdmin",
      "outputs": [
        {
          "internalType": "bytes32",
          "name": "",
          "type": "bytes32"
        }
      ],
      "stateMutability": "view",
      "type": "function"
    },
    {
      "inputs": [
        {
          "internalType": "bytes32",
          "name": "role",
          "type": "bytes32"
        },
        {
          "internalType": "address",
          "name": "account",
          "type": "address"
        }
      ],
      "name": "grantRole",
      "outputs": [],
      "stateMutability": "nonpayable",
      "type": "function"
    },
    {
      "inputs": [
        {
          "internalType": "bytes32",
          "name": "role",
          "type": "bytes32"
        },
        {
          "internalType": "address",
          "name": "account",
          "type": "address"
        }
      ],
      "name": "hasRole",
      "outputs": [
        {
          "internalType": "bool",
          "name": "",
          "type": "bool"
        }
      ],
      "stateMutability": "view",
      "type": "function"
    },
    {
      "inputs": [],
      "name": "owner",
      "outputs": [
        {
          "internalType": "address",
          "name": "",
          "type": "address"
        }
      ],
      "stateMutability": "view",
      "type": "function"
    },
    {
      "inputs": [],
      "name": "renounceOwnership",
      "outputs": [],
      "stateMutability": "nonpayable",
      "type": "function"
    },
    {
      "inputs": [
        {
          "internalType": "bytes32",
          "name": "role",
          "type": "bytes32"
        },
        {
          "internalType": "address",
          "name": "account",
          "type": "address"
        }
      ],
      "name": "renounceRole",
      "outputs": [],
      "stateMutability": "nonpayable",
      "type": "function"
    },
    {
      "inputs": [
        {
          "internalType": "bytes32",
          "name": "role",
          "type": "bytes32"
        },
        {
          "internalType": "address",
          "name": "account",
          "type": "address"
        }
      ],
      "name": "revokeRole",
      "outputs": [],
      "stateMutability": "nonpayable",
      "type": "function"
    },
    {
      "inputs": [
        {
          "internalType": "bytes4",
          "name": "interfaceId",
          "type": "bytes4"
        }
      ],
      "name": "supportsInterface",
      "outputs": [
        {
          "internalType": "bool",
          "name": "",
          "type": "bool"
        }
      ],
      "stateMutability": "view",
      "type": "function"
    },
    {
      "inputs": [
        {
          "internalType": "address",
          "name": "newOwner",
          "type": "address"
        }
      ],
      "name": "transferOwnership",
      "outputs": [],
      "stateMutability": "nonpayable",
      "type": "function"
    },
    {
      "inputs": [],
      "name": "sendPayment",
      "outputs": [],
      "stateMutability": "payable",
      "type": "function"
    },
    {
      "inputs": [],
      "name": "withdraw",
      "outputs": [],
      "stateMutability": "nonpayable",
      "type": "function"
    },
    {
      "inputs": [],
      "name": "balance",
      "outputs": [
        {
          "internalType": "uint256",
          "name": "",
          "type": "uint256"
        }
      ],
      "stateMutability": "view",
      "type": "function"
    }
  ],
  "bytecode": "0x60806040523480156200001157600080fd5b5060405162002b5838038062002b5883398181016040528101906200003791906200036c565b600062000049620001cd60201b60201c565b9050806000806101000a81548173ffffffffffffffffffffffffffffffffffffffff021916908373ffffffffffffffffffffffffffffffffffffffff1602179055508073ffffffffffffffffffffffffffffffffffffffff16600073ffffffffffffffffffffffffffffffffffffffff167f8be0079c531659141344cd1fd0a4f28419497f9722a3daafe3b4186f6b6457e060405160405180910390a350604051620000f59062000347565b604051809103906000f08015801562000112573d6000803e3d6000fd5b50600260006101000a81548173ffffffffffffffffffffffffffffffffffffffff021916908373ffffffffffffffffffffffffffffffffffffffff16021790555080600360006101000a81548173ffffffffffffffffffffffffffffffffffffffff021916908373ffffffffffffffffffffffffffffffffffffffff160217905550620001c67f2fdac322ee704ce09f0773f7f3f92eb98d5e7c836ee9c056cccd5f61041e5e3f33620001d560201b60201c565b50620003e6565b600033905090565b620001e78282620001eb60201b60201c565b5050565b620001fd8282620002dc60201b60201c565b620002d857600180600084815260200190815260200160002060000160008373ffffffffffffffffffffffffffffffffffffffff1673ffffffffffffffffffffffffffffffffffffffff16815260200190815260200160002060006101000a81548160ff0219169083151502179055506200027d620001cd60201b60201c565b73ffffffffffffffffffffffffffffffffffffffff168173ffffffffffffffffffffffffffffffffffffffff16837f2f8788117e7eff1d82e926ec794901d17c78024a50270940304540a733656f0d60405160405180910390a45b5050565b60006001600084815260200190815260200160002060000160008373ffffffffffffffffffffffffffffffffffffffff1673ffffffffffffffffffffffffffffffffffffffff16815260200190815260200160002060009054906101000a900460ff16905092915050565b610d728062001de683390190565b6000815190506200036681620003cc565b92915050565b6000602082840312156200037f57600080fd5b60006200038f8482850162000355565b91505092915050565b6000620003a582620003ac565b9050919050565b600073ffffffffffffffffffffffffffffffffffffffff82169050919050565b620003d78162000398565b8114620003e357600080fd5b50565b6119f080620003f66000396000f3fe6080604052600436106100dd5760003560e01c8063715018a61161007f578063a217fddf11610059578063a217fddf14610279578063b69ef8a8146102a4578063d547741f146102cf578063f2fde38b146102f8576100dd565b8063715018a6146101fa5780638da5cb5b1461021157806391d148541461023c576100dd565b806336568abe116100bb57806336568abe146101855780633ccfd60b146101ae5780636720ceb1146101c55780636ce76f30146101cf576100dd565b806301ffc9a7146100e2578063248a9ca31461011f5780632f2ff15d1461015c575b600080fd5b3480156100ee57600080fd5b5061010960048036038101906101049190611264565b610321565b6040516101169190611611565b60405180910390f35b34801561012b57600080fd5b50610146600480360381019061014191906111ff565b61039b565b604051610153919061162c565b60405180910390f35b34801561016857600080fd5b50610183600480360381019061017e9190611228565b6103bb565b005b34801561019157600080fd5b506101ac60048036038101906101a79190611228565b6103e4565b005b3480156101ba57600080fd5b506101c3610467565b005b6101cd610594565b005b3480156101db57600080fd5b506101e46106af565b6040516101f1919061162c565b60405180910390f35b34801561020657600080fd5b5061020f6106d3565b005b34801561021d57600080fd5b5061022661080d565b60405161023391906115c0565b60405180910390f35b34801561024857600080fd5b50610263600480360381019061025e9190611228565b610836565b6040516102709190611611565b60405180910390f35b34801561028557600080fd5b5061028e6108a1565b60405161029b919061162c565b60405180910390f35b3480156102b057600080fd5b506102b96108a8565b6040516102c69190611709565b60405180910390f35b3480156102db57600080fd5b506102f660048036038101906102f19190611228565b6109e5565b005b34801561030457600080fd5b5061031f600480360381019061031a91906111d6565b610a0e565b005b60007f7965db0b000000000000000000000000000000000000000000000000000000007bffffffffffffffffffffffffffffffffffffffffffffffffffffffff1916827bffffffffffffffffffffffffffffffffffffffffffffffffffffffff19161480610394575061039382610bb7565b5b9050919050565b600060016000838152602001908152602001600020600101549050919050565b6103c48261039b565b6103d5816103d0610c21565b610c29565b6103df8383610cc6565b505050565b6103ec610c21565b73ffffffffffffffffffffffffffffffffffffffff168173ffffffffffffffffffffffffffffffffffffffff1614610459576040517f08c379a0000000000000000000000000000000000000000000000000000000008152600401610450906116e9565b60405180910390fd5b6104638282610da6565b5050565b61046f610c21565b73ffffffffffffffffffffffffffffffffffffffff1661048d61080d565b73ffffffffffffffffffffffffffffffffffffffff16146104e3576040517f08c379a00000000000000000000000000000000000000000000000000000000081526004016104da906116c9565b60405180910390fd5b600260009054906101000a900473ffffffffffffffffffffffffffffffffffffffff1673ffffffffffffffffffffffffffffffffffffffff166351cff8d9600360009054906101000a900473ffffffffffffffffffffffffffffffffffffffff166040518263ffffffff1660e01b815260040161056091906115f6565b600060405180830381600087803b15801561057a57600080fd5b505af115801561058e573d6000803e3d6000fd5b50505050565b6105be7f2fdac322ee704ce09f0773f7f3f92eb98d5e7c836ee9c056cccd5f61041e5e3f33610836565b6105fd576040517f08c379a00000000000000000000000000000000000000000000000000000000081526004016105f4906116a9565b60405180910390fd5b600260009054906101000a900473ffffffffffffffffffffffffffffffffffffffff1673ffffffffffffffffffffffffffffffffffffffff1663f340fa0134600360009054906101000a900473ffffffffffffffffffffffffffffffffffffffff166040518363ffffffff1660e01b815260040161067b91906115db565b6000604051808303818588803b15801561069457600080fd5b505af11580156106a8573d6000803e3d6000fd5b5050505050565b7f2fdac322ee704ce09f0773f7f3f92eb98d5e7c836ee9c056cccd5f61041e5e3f81565b6106db610c21565b73ffffffffffffffffffffffffffffffffffffffff166106f961080d565b73ffffffffffffffffffffffffffffffffffffffff161461074f576040517f08c379a0000000000000000000000000000000000000000000000000000000008152600401610746906116c9565b60405180910390fd5b600073ffffffffffffffffffffffffffffffffffffffff1660008054906101000a900473ffffffffffffffffffffffffffffffffffffffff1673ffffffffffffffffffffffffffffffffffffffff167f8be0079c531659141344cd1fd0a4f28419497f9722a3daafe3b4186f6b6457e060405160405180910390a360008060006101000a81548173ffffffffffffffffffffffffffffffffffffffff021916908373ffffffffffffffffffffffffffffffffffffffff160217905550565b60008060009054906101000a900473ffffffffffffffffffffffffffffffffffffffff16905090565b60006001600084815260200190815260200160002060000160008373ffffffffffffffffffffffffffffffffffffffff1673ffffffffffffffffffffffffffffffffffffffff16815260200190815260200160002060009054906101000a900460ff16905092915050565b6000801b81565b60006108d47f2fdac322ee704ce09f0773f7f3f92eb98d5e7c836ee9c056cccd5f61041e5e3f33610836565b610913576040517f08c379a000000000000000000000000000000000000000000000000000000000815260040161090a906116a9565b60405180910390fd5b600260009054906101000a900473ffffffffffffffffffffffffffffffffffffffff1673ffffffffffffffffffffffffffffffffffffffff1663e3a9db1a600360009054906101000a900473ffffffffffffffffffffffffffffffffffffffff166040518263ffffffff1660e01b815260040161099091906115db565b60206040518083038186803b1580156109a857600080fd5b505afa1580156109bc573d6000803e3d6000fd5b505050506040513d601f19601f820116820180604052508101906109e0919061128d565b905090565b6109ee8261039b565b6109ff816109fa610c21565b610c29565b610a098383610da6565b505050565b610a16610c21565b73ffffffffffffffffffffffffffffffffffffffff16610a3461080d565b73ffffffffffffffffffffffffffffffffffffffff1614610a8a576040517f08c379a0000000000000000000000000000000000000000000000000000000008152600401610a81906116c9565b60405180910390fd5b600073ffffffffffffffffffffffffffffffffffffffff168173ffffffffffffffffffffffffffffffffffffffff161415610afa576040517f08c379a0000000000000000000000000000000000000000000000000000000008152600401610af190611689565b60405180910390fd5b8073ffffffffffffffffffffffffffffffffffffffff1660008054906101000a900473ffffffffffffffffffffffffffffffffffffffff1673ffffffffffffffffffffffffffffffffffffffff167f8be0079c531659141344cd1fd0a4f28419497f9722a3daafe3b4186f6b6457e060405160405180910390a3806000806101000a81548173ffffffffffffffffffffffffffffffffffffffff021916908373ffffffffffffffffffffffffffffffffffffffff16021790555050565b60007f01ffc9a7000000000000000000000000000000000000000000000000000000007bffffffffffffffffffffffffffffffffffffffffffffffffffffffff1916827bffffffffffffffffffffffffffffffffffffffffffffffffffffffff1916149050919050565b600033905090565b610c338282610836565b610cc257610c588173ffffffffffffffffffffffffffffffffffffffff166014610e88565b610c668360001c6020610e88565b604051602001610c77929190611586565b6040516020818303038152906040526040517f08c379a0000000000000000000000000000000000000000000000000000000008152600401610cb99190611647565b60405180910390fd5b5050565b610cd08282610836565b610da257600180600084815260200190815260200160002060000160008373ffffffffffffffffffffffffffffffffffffffff1673ffffffffffffffffffffffffffffffffffffffff16815260200190815260200160002060006101000a81548160ff021916908315150217905550610d47610c21565b73ffffffffffffffffffffffffffffffffffffffff168173ffffffffffffffffffffffffffffffffffffffff16837f2f8788117e7eff1d82e926ec794901d17c78024a50270940304540a733656f0d60405160405180910390a45b5050565b610db08282610836565b15610e845760006001600084815260200190815260200160002060000160008373ffffffffffffffffffffffffffffffffffffffff1673ffffffffffffffffffffffffffffffffffffffff16815260200190815260200160002060006101000a81548160ff021916908315150217905550610e29610c21565b73ffffffffffffffffffffffffffffffffffffffff168173ffffffffffffffffffffffffffffffffffffffff16837ff6391f5c32d9c69d2a47ea670b442974b53935d1edc7fd64eb21e047a839171b60405160405180910390a45b5050565b606060006002836002610e9b91906117a1565b610ea5919061174b565b67ffffffffffffffff811115610ee4577f4e487b7100000000000000000000000000000000000000000000000000000000600052604160045260246000fd5b6040519080825280601f01601f191660200182016040528015610f165781602001600182028036833780820191505090505b5090507f300000000000000000000000000000000000000000000000000000000000000081600081518110610f74577f4e487b7100000000000000000000000000000000000000000000000000000000600052603260045260246000fd5b60200101907effffffffffffffffffffffffffffffffffffffffffffffffffffffffffffff1916908160001a9053507f780000000000000000000000000000000000000000000000000000000000000081600181518110610ffe577f4e487b7100000000000000000000000000000000000000000000000000000000600052603260045260246000fd5b60200101907effffffffffffffffffffffffffffffffffffffffffffffffffffffffffffff1916908160001a9053506000600184600261103e91906117a1565b611048919061174b565b90505b6001811115611134577f3031323334353637383961626364656600000000000000000000000000000000600f8616601081106110b0577f4e487b7100000000000000000000000000000000000000000000000000000000600052603260045260246000fd5b1a60f81b8282815181106110ed577f4e487b7100000000000000000000000000000000000000000000000000000000600052603260045260246000fd5b60200101907effffffffffffffffffffffffffffffffffffffffffffffffffffffffffffff1916908160001a905350600485901c94508061112d906118f4565b905061104b565b5060008414611178576040517f08c379a000000000000000000000000000000000000000000000000000000000815260040161116f90611669565b60405180910390fd5b8091505092915050565b6000813590506111918161195e565b92915050565b6000813590506111a681611975565b92915050565b6000813590506111bb8161198c565b92915050565b6000815190506111d0816119a3565b92915050565b6000602082840312156111e857600080fd5b60006111f684828501611182565b91505092915050565b60006020828403121561121157600080fd5b600061121f84828501611197565b91505092915050565b6000806040838503121561123b57600080fd5b600061124985828601611197565b925050602061125a85828601611182565b9150509250929050565b60006020828403121561127657600080fd5b6000611284848285016111ac565b91505092915050565b60006020828403121561129f57600080fd5b60006112ad848285016111c1565b91505092915050565b6112bf8161188b565b82525050565b6112ce8161180d565b82525050565b6112dd816117fb565b82525050565b6112ec8161181f565b82525050565b6112fb8161182b565b82525050565b600061130c82611724565b611316818561172f565b93506113268185602086016118c1565b61132f8161194d565b840191505092915050565b600061134582611724565b61134f8185611740565b935061135f8185602086016118c1565b80840191505092915050565b600061137860208361172f565b91507f537472696e67733a20686578206c656e67746820696e73756666696369656e746000830152602082019050919050565b60006113b860268361172f565b91507f4f776e61626c653a206e6577206f776e657220697320746865207a65726f206160008301527f64647265737300000000000000000000000000000000000000000000000000006020830152604082019050919050565b600061141e60168361172f565b91507f43616c6c6572206973206e6f74206120657363726f77000000000000000000006000830152602082019050919050565b600061145e60208361172f565b91507f4f776e61626c653a2063616c6c6572206973206e6f7420746865206f776e65726000830152602082019050919050565b600061149e601783611740565b91507f416363657373436f6e74726f6c3a206163636f756e74200000000000000000006000830152601782019050919050565b60006114de601183611740565b91507f206973206d697373696e6720726f6c65200000000000000000000000000000006000830152601182019050919050565b600061151e602f8361172f565b91507f416363657373436f6e74726f6c3a2063616e206f6e6c792072656e6f756e636560008301527f20726f6c657320666f722073656c6600000000000000000000000000000000006020830152604082019050919050565b61158081611881565b82525050565b600061159182611491565b915061159d828561133a565b91506115a8826114d1565b91506115b4828461133a565b91508190509392505050565b60006020820190506115d560008301846112d4565b92915050565b60006020820190506115f060008301846112b6565b92915050565b600060208201905061160b60008301846112c5565b92915050565b600060208201905061162660008301846112e3565b92915050565b600060208201905061164160008301846112f2565b92915050565b600060208201905081810360008301526116618184611301565b905092915050565b600060208201905081810360008301526116828161136b565b9050919050565b600060208201905081810360008301526116a2816113ab565b9050919050565b600060208201905081810360008301526116c281611411565b9050919050565b600060208201905081810360008301526116e281611451565b9050919050565b6000602082019050818103600083015261170281611511565b9050919050565b600060208201905061171e6000830184611577565b92915050565b600081519050919050565b600082825260208201905092915050565b600081905092915050565b600061175682611881565b915061176183611881565b9250827fffffffffffffffffffffffffffffffffffffffffffffffffffffffffffffffff038211156117965761179561191e565b5b828201905092915050565b60006117ac82611881565b91506117b783611881565b9250817fffffffffffffffffffffffffffffffffffffffffffffffffffffffffffffffff04831182151516156117f0576117ef61191e565b5b828202905092915050565b600061180682611861565b9050919050565b600061181882611861565b9050919050565b60008115159050919050565b6000819050919050565b60007fffffffff0000000000000000000000000000000000000000000000000000000082169050919050565b600073ffffffffffffffffffffffffffffffffffffffff82169050919050565b6000819050919050565b60006118968261189d565b9050919050565b60006118a8826118af565b9050919050565b60006118ba82611861565b9050919050565b60005b838110156118df5780820151818401526020810190506118c4565b838111156118ee576000848401525b50505050565b60006118ff82611881565b915060008214156119135761191261191e565b5b600182039050919050565b7f4e487b7100000000000000000000000000000000000000000000000000000000600052601160045260246000fd5b6000601f19601f8301169050919050565b611967816117fb565b811461197257600080fd5b50565b61197e8161182b565b811461198957600080fd5b50565b61199581611835565b81146119a057600080fd5b50565b6119ac81611881565b81146119b757600080fd5b5056fea26469706673582212206c84d4a7ba107774a1583bd881a75cb583bc042232d20f408e3b0fa458c7f79f64736f6c63430008000033608060405234801561001057600080fd5b5060006100216100c460201b60201c565b9050806000806101000a81548173ffffffffffffffffffffffffffffffffffffffff021916908373ffffffffffffffffffffffffffffffffffffffff1602179055508073ffffffffffffffffffffffffffffffffffffffff16600073ffffffffffffffffffffffffffffffffffffffff167f8be0079c531659141344cd1fd0a4f28419497f9722a3daafe3b4186f6b6457e060405160405180910390a3506100cc565b600033905090565b610c97806100db6000396000f3fe6080604052600436106100555760003560e01c806351cff8d91461005a578063715018a6146100835780638da5cb5b1461009a578063e3a9db1a146100c5578063f2fde38b14610102578063f340fa011461012b575b600080fd5b34801561006657600080fd5b50610081600480360381019061007c91906108cc565b610147565b005b34801561008f57600080fd5b506100986102c7565b005b3480156100a657600080fd5b506100af610401565b6040516100bc9190610a8e565b60405180910390f35b3480156100d157600080fd5b506100ec60048036038101906100e791906108a3565b61042a565b6040516100f99190610b29565b60405180910390f35b34801561010e57600080fd5b50610129600480360381019061012491906108a3565b610473565b005b610145600480360381019061014091906108a3565b61061c565b005b61014f61077d565b73ffffffffffffffffffffffffffffffffffffffff1661016d610401565b73ffffffffffffffffffffffffffffffffffffffff16146101c3576040517f08c379a00000000000000000000000000000000000000000000000000000000081526004016101ba90610b09565b60405180910390fd5b6000600160008373ffffffffffffffffffffffffffffffffffffffff1673ffffffffffffffffffffffffffffffffffffffff1681526020019081526020016000205490506000600160008473ffffffffffffffffffffffffffffffffffffffff1673ffffffffffffffffffffffffffffffffffffffff16815260200190815260200160002081905550610275818373ffffffffffffffffffffffffffffffffffffffff1661078590919063ffffffff16565b8173ffffffffffffffffffffffffffffffffffffffff167f7084f5476618d8e60b11ef0d7d3f06914655adb8793e28ff7f018d4c76d505d5826040516102bb9190610b29565b60405180910390a25050565b6102cf61077d565b73ffffffffffffffffffffffffffffffffffffffff166102ed610401565b73ffffffffffffffffffffffffffffffffffffffff1614610343576040517f08c379a000000000000000000000000000000000000000000000000000000000815260040161033a90610b09565b60405180910390fd5b600073ffffffffffffffffffffffffffffffffffffffff1660008054906101000a900473ffffffffffffffffffffffffffffffffffffffff1673ffffffffffffffffffffffffffffffffffffffff167f8be0079c531659141344cd1fd0a4f28419497f9722a3daafe3b4186f6b6457e060405160405180910390a360008060006101000a81548173ffffffffffffffffffffffffffffffffffffffff021916908373ffffffffffffffffffffffffffffffffffffffff160217905550565b60008060009054906101000a900473ffffffffffffffffffffffffffffffffffffffff16905090565b6000600160008373ffffffffffffffffffffffffffffffffffffffff1673ffffffffffffffffffffffffffffffffffffffff168152602001908152602001600020549050919050565b61047b61077d565b73ffffffffffffffffffffffffffffffffffffffff16610499610401565b73ffffffffffffffffffffffffffffffffffffffff16146104ef576040517f08c379a00000000000000000000000000000000000000000000000000000000081526004016104e690610b09565b60405180910390fd5b600073ffffffffffffffffffffffffffffffffffffffff168173ffffffffffffffffffffffffffffffffffffffff16141561055f576040517f08c379a000000000000000000000000000000000000000000000000000000000815260040161055690610aa9565b60405180910390fd5b8073ffffffffffffffffffffffffffffffffffffffff1660008054906101000a900473ffffffffffffffffffffffffffffffffffffffff1673ffffffffffffffffffffffffffffffffffffffff167f8be0079c531659141344cd1fd0a4f28419497f9722a3daafe3b4186f6b6457e060405160405180910390a3806000806101000a81548173ffffffffffffffffffffffffffffffffffffffff021916908373ffffffffffffffffffffffffffffffffffffffff16021790555050565b61062461077d565b73ffffffffffffffffffffffffffffffffffffffff16610642610401565b73ffffffffffffffffffffffffffffffffffffffff1614610698576040517f08c379a000000000000000000000000000000000000000000000000000000000815260040161068f90610b09565b60405180910390fd5b600034905080600160008473ffffffffffffffffffffffffffffffffffffffff1673ffffffffffffffffffffffffffffffffffffffff168152602001908152602001600020546106e89190610b60565b600160008473ffffffffffffffffffffffffffffffffffffffff1673ffffffffffffffffffffffffffffffffffffffff168152602001908152602001600020819055508173ffffffffffffffffffffffffffffffffffffffff167f2da466a7b24304f47e87fa2e1e5a81b9831ce54fec19055ce277ca2f39ba42c4826040516107719190610b29565b60405180910390a25050565b600033905090565b804710156107c8576040517f08c379a00000000000000000000000000000000000000000000000000000000081526004016107bf90610ae9565b60405180910390fd5b60008273ffffffffffffffffffffffffffffffffffffffff16826040516107ee90610a79565b60006040518083038185875af1925050503d806000811461082b576040519150601f19603f3d011682016040523d82523d6000602084013e610830565b606091505b5050905080610874576040517f08c379a000000000000000000000000000000000000000000000000000000000815260040161086b90610ac9565b60405180910390fd5b505050565b60008135905061088881610c33565b92915050565b60008135905061089d81610c4a565b92915050565b6000602082840312156108b557600080fd5b60006108c384828501610879565b91505092915050565b6000602082840312156108de57600080fd5b60006108ec8482850161088e565b91505092915050565b6108fe81610bb6565b82525050565b6000610911602683610b4f565b91507f4f776e61626c653a206e6577206f776e657220697320746865207a65726f206160008301527f64647265737300000000000000000000000000000000000000000000000000006020830152604082019050919050565b6000610977603a83610b4f565b91507f416464726573733a20756e61626c6520746f2073656e642076616c75652c207260008301527f6563697069656e74206d617920686176652072657665727465640000000000006020830152604082019050919050565b60006109dd601d83610b4f565b91507f416464726573733a20696e73756666696369656e742062616c616e63650000006000830152602082019050919050565b6000610a1d602083610b4f565b91507f4f776e61626c653a2063616c6c6572206973206e6f7420746865206f776e65726000830152602082019050919050565b6000610a5d600083610b44565b9150600082019050919050565b610a7381610bfa565b82525050565b6000610a8482610a50565b9150819050919050565b6000602082019050610aa360008301846108f5565b92915050565b60006020820190508181036000830152610ac281610904565b9050919050565b60006020820190508181036000830152610ae28161096a565b9050919050565b60006020820190508181036000830152610b02816109d0565b9050919050565b60006020820190508181036000830152610b2281610a10565b9050919050565b6000602082019050610b3e6000830184610a6a565b92915050565b600081905092915050565b600082825260208201905092915050565b6000610b6b82610bfa565b9150610b7683610bfa565b9250827fffffffffffffffffffffffffffffffffffffffffffffffffffffffffffffffff03821115610bab57610baa610c04565b5b828201905092915050565b6000610bc182610bda565b9050919050565b6000610bd382610bda565b9050919050565b600073ffffffffffffffffffffffffffffffffffffffff82169050919050565b6000819050919050565b7f4e487b7100000000000000000000000000000000000000000000000000000000600052601160045260246000fd5b610c3c81610bb6565b8114610c4757600080fd5b50565b610c5381610bc8565b8114610c5e57600080fd5b5056fea2646970667358221220fedc428d9008dd27ebe806bb81b52f3bf82708f349d505f7239923d369bc94c864736f6c63430008000033",
  "immutableReferences": {},
  "source": "//SPDX-License-Identifier: MIT\n\npragma solidity ^0.8.0;\n\n\nimport '@openzeppelin/contracts/access/Ownable.sol';\nimport '@openzeppelin/contracts/access/AccessControl.sol';\nimport '@openzeppelin/contracts/utils/escrow/Escrow.sol';\nimport '@openzeppelin/contracts/utils/math/SafeMath.sol';\n\n\n/**\n * @title Payment gateway using OpenZeppelin Escrow\n * @author Alexandre\n */\ncontract PaymentGateway is Ownable, AccessControl {\n\n    // Create a new role identifier for the escrow role\n    bytes32 public constant ESCROW_ROLE = keccak256(\"ESCROW_ROLE\");\n\n\n    using SafeMath for uint256;\n\n    Escrow escrow;\n    address payable wallet;\n\n    /**\n     * @param _wallet receives funds from the payment gateway\n     */\n    constructor(address payable _wallet) { //public \n        escrow = new Escrow();\n        wallet = _wallet;\n        _setupRole(ESCROW_ROLE, msg.sender);\n    }\n\n    /**\n     * Receives payments from customers\n     */\n    function sendPayment() external payable {\n        //escrow.deposit.value(msg.value)(wallet);\n        require(hasRole(ESCROW_ROLE, msg.sender), \"Caller is not a escrow\");\n        escrow.deposit{value:msg.value}(wallet);\n    }\n\n    /**\n     * Withdraw funds to wallet\n     */\n    function withdraw() external onlyOwner {\n        escrow.withdraw(wallet);\n        //require(hasRole(MINTER_ROLE, msg.sender), \"Caller is not a minter\");\n    }\n\n    /**\n     * Checks balance available to withdraw\n     * @return the balance\n     */\n    function balance() external view returns (uint256) { //onlyOwner\n        require(hasRole(ESCROW_ROLE, msg.sender), \"Caller is not a escrow\");\n        return escrow.depositsOf(wallet);\n    }\n}",
  "sourcePath": "/Users/alexandrebarros/Documents/Code/GBC/Design-Patterns/Labs/Escrow/contracts/escrow.sol",
  "compiler": {
    "name": "solc",
    "version": "0.8.0+commit.c7dfd78e.Emscripten.clang"
  },
  "schemaVersion": "3.4.1",
  "updatedAt": "2021-06-05T01:17:38.762Z",
  "devdoc": {
    "author": "Alexandre",
    "kind": "dev",
    "methods": {
      "balance()": {
        "returns": {
          "_0": "the balance"
        }
      },
      "constructor": {
        "params": {
          "_wallet": "receives funds from the payment gateway"
        }
      },
      "getRoleAdmin(bytes32)": {
        "details": "Returns the admin role that controls `role`. See {grantRole} and {revokeRole}. To change a role's admin, use {_setRoleAdmin}."
      },
      "grantRole(bytes32,address)": {
        "details": "Grants `role` to `account`. If `account` had not been already granted `role`, emits a {RoleGranted} event. Requirements: - the caller must have ``role``'s admin role."
      },
      "hasRole(bytes32,address)": {
        "details": "Returns `true` if `account` has been granted `role`."
      },
      "owner()": {
        "details": "Returns the address of the current owner."
      },
      "renounceOwnership()": {
        "details": "Leaves the contract without owner. It will not be possible to call `onlyOwner` functions anymore. Can only be called by the current owner. NOTE: Renouncing ownership will leave the contract without an owner, thereby removing any functionality that is only available to the owner."
      },
      "renounceRole(bytes32,address)": {
        "details": "Revokes `role` from the calling account. Roles are often managed via {grantRole} and {revokeRole}: this function's purpose is to provide a mechanism for accounts to lose their privileges if they are compromised (such as when a trusted device is misplaced). If the calling account had been granted `role`, emits a {RoleRevoked} event. Requirements: - the caller must be `account`."
      },
      "revokeRole(bytes32,address)": {
        "details": "Revokes `role` from `account`. If `account` had been granted `role`, emits a {RoleRevoked} event. Requirements: - the caller must have ``role``'s admin role."
      },
      "supportsInterface(bytes4)": {
        "details": "See {IERC165-supportsInterface}."
      },
      "transferOwnership(address)": {
        "details": "Transfers ownership of the contract to a new account (`newOwner`). Can only be called by the current owner."
      }
    },
    "title": "Payment gateway using OpenZeppelin Escrow",
    "version": 1
  },
  "userdoc": {
    "kind": "user",
    "methods": {
      "balance()": {
        "notice": "Checks balance available to withdraw"
      },
      "sendPayment()": {
        "notice": "Receives payments from customers"
      },
      "withdraw()": {
        "notice": "Withdraw funds to wallet"
      }
    },
    "version": 1
  }
}